{
  "_format": "hh-sol-artifact-1",
  "contractName": "ArbChainAi",
  "sourceName": "contracts/ArbChainAi.sol",
  "abi": [
    {
      "anonymous": false,
      "inputs": [
        {
          "indexed": false,
          "internalType": "string",
          "name": "caseId",
          "type": "string"
        },
        {
          "indexed": false,
          "internalType": "address",
          "name": "creator",
          "type": "address"
        }
      ],
      "name": "CaseCreated",
      "type": "event"
    },
    {
      "anonymous": false,
      "inputs": [
        {
          "indexed": false,
          "internalType": "string",
          "name": "caseId",
          "type": "string"
        },
        {
          "indexed": false,
          "internalType": "address",
          "name": "caseCreator",
          "type": "address"
        },
        {
          "indexed": false,
          "internalType": "address",
          "name": "secondPart",
          "type": "address"
        },
        {
          "indexed": false,
          "internalType": "bool",
          "name": "isJudgementFinal",
          "type": "bool"
        },
        {
          "indexed": false,
          "internalType": "bool",
          "name": "caseCreatorProofSubmitted",
          "type": "bool"
        },
        {
          "indexed": false,
          "internalType": "bool",
          "name": "secondPartProofSubmitted",
          "type": "bool"
        },
        {
          "indexed": false,
          "internalType": "bool",
          "name": "caseCreatorWon",
          "type": "bool"
        },
        {
          "indexed": false,
          "internalType": "string",
          "name": "finalJudgementUri",
          "type": "string"
        }
      ],
      "name": "CaseDataDisplayed",
      "type": "event"
    },
    {
      "anonymous": false,
      "inputs": [
        {
          "indexed": false,
          "internalType": "string",
          "name": "caseId",
          "type": "string"
        },
        {
          "indexed": false,
          "internalType": "bool",
          "name": "caseCreatorWon",
          "type": "bool"
        }
      ],
      "name": "JudgementFinalized",
      "type": "event"
    },
    {
      "anonymous": false,
      "inputs": [
        {
          "indexed": false,
          "internalType": "string",
          "name": "caseId",
          "type": "string"
        },
        {
          "indexed": false,
          "internalType": "address",
          "name": "secondPart",
          "type": "address"
        }
      ],
      "name": "SecondPartConnected",
      "type": "event"
    },
    {
      "anonymous": false,
      "inputs": [
        {
          "indexed": false,
          "internalType": "string",
          "name": "caseId",
          "type": "string"
        },
        {
          "indexed": false,
          "internalType": "address",
          "name": "by",
          "type": "address"
        }
      ],
      "name": "StatementProofUpdated",
      "type": "event"
    },
    {
      "inputs": [
        {
          "internalType": "string",
          "name": "",
          "type": "string"
        }
      ],
      "name": "caseCreatorsProofs",
      "outputs": [
        {
          "internalType": "string",
          "name": "statementURI",
          "type": "string"
        },
        {
          "internalType": "string",
          "name": "gptLawer",
          "type": "string"
        },
        {
          "internalType": "uint256",
          "name": "time",
          "type": "uint256"
        }
      ],
      "stateMutability": "view",
      "type": "function"
    },
    {
      "inputs": [
        {
          "internalType": "string",
          "name": "",
          "type": "string"
        }
      ],
      "name": "cases",
      "outputs": [
        {
          "internalType": "address",
          "name": "caseCreator",
          "type": "address"
        },
        {
          "internalType": "address",
          "name": "secondPart",
          "type": "address"
        },
        {
          "internalType": "string",
          "name": "caseId",
          "type": "string"
        },
        {
          "internalType": "bool",
          "name": "isJudgementFinal",
          "type": "bool"
        },
        {
          "internalType": "bool",
          "name": "caseCreatorProofSubmitted",
          "type": "bool"
        },
        {
          "internalType": "bool",
          "name": "secondPartProofSubmitted",
          "type": "bool"
        },
        {
          "internalType": "bool",
          "name": "caseCreatorWon",
          "type": "bool"
        },
        {
          "internalType": "string",
          "name": "finalJudgementUri",
          "type": "string"
        }
      ],
      "stateMutability": "view",
      "type": "function"
    },
    {
      "inputs": [],
      "name": "createCase",
      "outputs": [
        {
          "internalType": "string",
          "name": "",
          "type": "string"
        }
      ],
      "stateMutability": "nonpayable",
      "type": "function"
    },
    {
      "inputs": [
        {
          "internalType": "string",
          "name": "_caseId",
          "type": "string"
        }
      ],
      "name": "displayCaseData",
      "outputs": [],
      "stateMutability": "nonpayable",
      "type": "function"
    },
    {
      "inputs": [
        {
          "internalType": "string",
          "name": "_caseId",
          "type": "string"
        },
        {
          "internalType": "bool",
          "name": "_judgement",
          "type": "bool"
        },
        {
          "internalType": "string",
          "name": "_finalJudgementUri",
          "type": "string"
        }
      ],
      "name": "finalJudgement",
      "outputs": [],
      "stateMutability": "nonpayable",
      "type": "function"
    },
    {
      "inputs": [
        {
          "internalType": "string",
          "name": "_caseId",
          "type": "string"
        }
      ],
      "name": "getCase",
      "outputs": [
        {
          "internalType": "address",
          "name": "caseCreator",
          "type": "address"
        },
        {
          "internalType": "address",
          "name": "secondPart",
          "type": "address"
        },
        {
          "internalType": "bool",
          "name": "isJudgementFinal",
          "type": "bool"
        },
        {
          "internalType": "bool",
          "name": "caseCreatorProofSubmitted",
          "type": "bool"
        },
        {
          "internalType": "bool",
          "name": "secondPartProofSubmitted",
          "type": "bool"
        },
        {
          "internalType": "bool",
          "name": "caseCreatorWon",
          "type": "bool"
        },
        {
          "internalType": "string",
          "name": "finalJudgementUri",
          "type": "string"
        }
      ],
      "stateMutability": "view",
      "type": "function"
    },
    {
      "inputs": [
        {
          "internalType": "string",
          "name": "_caseId",
          "type": "string"
        }
      ],
      "name": "secondPartConnect",
      "outputs": [],
      "stateMutability": "nonpayable",
      "type": "function"
    },
    {
      "inputs": [
        {
          "internalType": "string",
          "name": "",
          "type": "string"
        }
      ],
      "name": "secondPartProofs",
      "outputs": [
        {
          "internalType": "string",
          "name": "statementURI",
          "type": "string"
        },
        {
          "internalType": "string",
          "name": "gptLawer",
          "type": "string"
        },
        {
          "internalType": "uint256",
          "name": "time",
          "type": "uint256"
        }
      ],
      "stateMutability": "view",
      "type": "function"
    },
    {
      "inputs": [
        {
          "internalType": "string",
          "name": "_statementURI",
          "type": "string"
        },
        {
          "internalType": "string",
          "name": "_gptLawer",
          "type": "string"
        },
        {
          "internalType": "string",
          "name": "_caseId",
          "type": "string"
        }
      ],
      "name": "updateStatementProof",
      "outputs": [],
      "stateMutability": "nonpayable",
      "type": "function"
    }
  ],
  "bytecode": "0x608060405234801561001057600080fd5b50612c7b806100206000396000f3fe608060405234801561001057600080fd5b50600436106100935760003560e01c8063c567775611610066578063c567775614610136578063d4e0682614610152578063da30e8d114610188578063df965829146101a4578063fc592ac2146101db57610093565b80631b9505ea146100985780632e28b68e146100b65780636a2acc03146100e85780637049fbd014610104575b600080fd5b6100a06101f7565b6040516100ad9190611cd6565b60405180910390f35b6100d060048036038101906100cb9190611e41565b610428565b6040516100df93929190611ea3565b60405180910390f35b61010260048036038101906100fd9190611f20565b610578565b005b61011e60048036038101906101199190611e41565b610942565b60405161012d93929190611ea3565b60405180910390f35b610150600480360381019061014b9190611fab565b610a92565b005b61016c60048036038101906101679190611e41565b610f42565b60405161017f97969594939291906120a2565b60405180910390f35b6101a2600480360381019061019d9190611e41565b6111a0565b005b6101be60048036038101906101b99190611e41565b61144b565b6040516101d2989796959493929190612118565b60405180910390f35b6101f560048036038101906101f09190611e41565b61162d565b005b606060006102036117d6565b905060006040518061010001604052803373ffffffffffffffffffffffffffffffffffffffff168152602001600073ffffffffffffffffffffffffffffffffffffffff1681526020018381526020016000151581526020016000151581526020016000151581526020016000151581526020016040518060200160405280600081525081525090508060008360405161029c91906121e0565b908152602001604051809103902060008201518160000160006101000a81548173ffffffffffffffffffffffffffffffffffffffff021916908373ffffffffffffffffffffffffffffffffffffffff16021790555060208201518160010160006101000a81548173ffffffffffffffffffffffffffffffffffffffff021916908373ffffffffffffffffffffffffffffffffffffffff160217905550604082015181600201908161034d9190612403565b5060608201518160030160006101000a81548160ff02191690831515021790555060808201518160030160016101000a81548160ff02191690831515021790555060a08201518160030160026101000a81548160ff02191690831515021790555060c08201518160030160036101000a81548160ff02191690831515021790555060e08201518160040190816103e39190612403565b509050507f46cd6775a5e99cf8bf52e9c34d3afa9cfdfb7f1a539b2e1354e402f99bd6ac8182336040516104189291906124d5565b60405180910390a1819250505090565b60018180516020810182018051848252602083016020850120818352809550505050505060009150905080600001805461046190612226565b80601f016020809104026020016040519081016040528092919081815260200182805461048d90612226565b80156104da5780601f106104af576101008083540402835291602001916104da565b820191906000526020600020905b8154815290600101906020018083116104bd57829003601f168201915b5050505050908060010180546104ef90612226565b80601f016020809104026020016040519081016040528092919081815260200182805461051b90612226565b80156105685780601f1061053d57610100808354040283529160200191610568565b820191906000526020600020905b81548152906001019060200180831161054b57829003601f168201915b5050505050908060020154905083565b600073ffffffffffffffffffffffffffffffffffffffff166000846040516105a091906121e0565b908152602001604051809103902060000160009054906101000a900473ffffffffffffffffffffffffffffffffffffffff1673ffffffffffffffffffffffffffffffffffffffff1603610628576040517f08c379a000000000000000000000000000000000000000000000000000000000815260040161061f90612551565b60405180910390fd5b3373ffffffffffffffffffffffffffffffffffffffff1660008460405161064f91906121e0565b908152602001604051809103902060000160009054906101000a900473ffffffffffffffffffffffffffffffffffffffff1673ffffffffffffffffffffffffffffffffffffffff16148061070f57503373ffffffffffffffffffffffffffffffffffffffff166000846040516106c591906121e0565b908152602001604051809103902060010160009054906101000a900473ffffffffffffffffffffffffffffffffffffffff1673ffffffffffffffffffffffffffffffffffffffff16145b61074e576040517f08c379a0000000000000000000000000000000000000000000000000000000008152600401610745906125bd565b60405180910390fd5b60008360405161075e91906121e0565b908152602001604051809103902060030160009054906101000a900460ff16156107bd576040517f08c379a00000000000000000000000000000000000000000000000000000000081526004016107b49061264f565b60405180910390fd5b6000836040516107cd91906121e0565b908152602001604051809103902060030160019054906101000a900460ff168015610823575060008360405161080391906121e0565b908152602001604051809103902060030160029054906101000a900460ff165b610862576040517f08c379a0000000000000000000000000000000000000000000000000000000008152600401610859906126e1565b60405180910390fd5b8060008460405161087391906121e0565b908152602001604051809103902060040190816108909190612403565b50816000846040516108a291906121e0565b908152602001604051809103902060030160036101000a81548160ff02191690831515021790555060016000846040516108dc91906121e0565b908152602001604051809103902060030160006101000a81548160ff0219169083151502179055507f0ad7b489751a09d4d3ed3d37b4a451006d1b35411e10a2d6e4a68a9ab0a69df48383604051610935929190612701565b60405180910390a1505050565b60028180516020810182018051848252602083016020850120818352809550505050505060009150905080600001805461097b90612226565b80601f01602080910402602001604051908101604052809291908181526020018280546109a790612226565b80156109f45780601f106109c9576101008083540402835291602001916109f4565b820191906000526020600020905b8154815290600101906020018083116109d757829003601f168201915b505050505090806001018054610a0990612226565b80601f0160208091040260200160405190810160405280929190818152602001828054610a3590612226565b8015610a825780601f10610a5757610100808354040283529160200191610a82565b820191906000526020600020905b815481529060010190602001808311610a6557829003601f168201915b5050505050908060020154905083565b600073ffffffffffffffffffffffffffffffffffffffff16600082604051610aba91906121e0565b908152602001604051809103902060000160009054906101000a900473ffffffffffffffffffffffffffffffffffffffff1673ffffffffffffffffffffffffffffffffffffffff1603610b42576040517f08c379a0000000000000000000000000000000000000000000000000000000008152600401610b3990612551565b60405180910390fd5b3373ffffffffffffffffffffffffffffffffffffffff16600082604051610b6991906121e0565b908152602001604051809103902060000160009054906101000a900473ffffffffffffffffffffffffffffffffffffffff1673ffffffffffffffffffffffffffffffffffffffff161480610c2957503373ffffffffffffffffffffffffffffffffffffffff16600082604051610bdf91906121e0565b908152602001604051809103902060010160009054906101000a900473ffffffffffffffffffffffffffffffffffffffff1673ffffffffffffffffffffffffffffffffffffffff16145b610c68576040517f08c379a0000000000000000000000000000000000000000000000000000000008152600401610c5f906125bd565b60405180910390fd5b600060405180606001604052808581526020018481526020014281525090503373ffffffffffffffffffffffffffffffffffffffff16600083604051610cae91906121e0565b908152602001604051809103902060000160009054906101000a900473ffffffffffffffffffffffffffffffffffffffff1673ffffffffffffffffffffffffffffffffffffffff1603610e0157600082604051610d0b91906121e0565b908152602001604051809103902060030160019054906101000a900460ff1615610d6a576040517f08c379a0000000000000000000000000000000000000000000000000000000008152600401610d619061277d565b60405180910390fd5b80600183604051610d7b91906121e0565b90815260200160405180910390206000820151816000019081610d9e9190612403565b506020820151816001019081610db49190612403565b50604082015181600201559050506001600083604051610dd491906121e0565b908152602001604051809103902060030160016101000a81548160ff021916908315150217905550610f03565b600082604051610e1191906121e0565b908152602001604051809103902060030160029054906101000a900460ff1615610e70576040517f08c379a0000000000000000000000000000000000000000000000000000000008152600401610e679061277d565b60405180910390fd5b80600283604051610e8191906121e0565b90815260200160405180910390206000820151816000019081610ea49190612403565b506020820151816001019081610eba9190612403565b50604082015181600201559050506001600083604051610eda91906121e0565b908152602001604051809103902060030160026101000a81548160ff0219169083151502179055505b7fe9fe3b541423ee76c9a78f309955988b0a55844cdfc8151087455c6a6d9b08ae8233604051610f349291906124d5565b60405180910390a150505050565b6000806000806000806060600073ffffffffffffffffffffffffffffffffffffffff16600089604051610f7591906121e0565b908152602001604051809103902060000160009054906101000a900473ffffffffffffffffffffffffffffffffffffffff1673ffffffffffffffffffffffffffffffffffffffff1603610ffd576040517f08c379a0000000000000000000000000000000000000000000000000000000008152600401610ff490612551565b60405180910390fd5b6000808960405161100e91906121e0565b90815260200160405180910390209050600060018a60405161103091906121e0565b90815260200160405180910390209050600060028b60405161105291906121e0565b908152602001604051809103902090508260000160009054906101000a900473ffffffffffffffffffffffffffffffffffffffff168360010160009054906101000a900473ffffffffffffffffffffffffffffffffffffffff168460030160009054906101000a900460ff168560030160019054906101000a900460ff168660030160029054906101000a900460ff168760030160039054906101000a900460ff168860040180805461110490612226565b80601f016020809104026020016040519081016040528092919081815260200182805461113090612226565b801561117d5780601f106111525761010080835404028352916020019161117d565b820191906000526020600020905b81548152906001019060200180831161116057829003601f168201915b505050505090509950995099509950995099509950505050919395979092949650565b600073ffffffffffffffffffffffffffffffffffffffff166000826040516111c891906121e0565b908152602001604051809103902060000160009054906101000a900473ffffffffffffffffffffffffffffffffffffffff1673ffffffffffffffffffffffffffffffffffffffff1603611250576040517f08c379a000000000000000000000000000000000000000000000000000000000815260040161124790612551565b60405180910390fd5b600073ffffffffffffffffffffffffffffffffffffffff1660008260405161127891906121e0565b908152602001604051809103902060010160009054906101000a900473ffffffffffffffffffffffffffffffffffffffff1673ffffffffffffffffffffffffffffffffffffffff1614611300576040517f08c379a00000000000000000000000000000000000000000000000000000000081526004016112f7906127e9565b60405180910390fd5b3373ffffffffffffffffffffffffffffffffffffffff1660008260405161132791906121e0565b908152602001604051809103902060000160009054906101000a900473ffffffffffffffffffffffffffffffffffffffff1673ffffffffffffffffffffffffffffffffffffffff16036113af576040517f08c379a00000000000000000000000000000000000000000000000000000000081526004016113a69061287b565b60405180910390fd5b336000826040516113c091906121e0565b908152602001604051809103902060010160006101000a81548173ffffffffffffffffffffffffffffffffffffffff021916908373ffffffffffffffffffffffffffffffffffffffff1602179055507f9c1d639401ead2b34e9357b98f4004b561efce69547efcbf98f2b6bcbe31174c81336040516114409291906124d5565b60405180910390a150565b6000818051602081018201805184825260208301602085012081835280955050505050506000915090508060000160009054906101000a900473ffffffffffffffffffffffffffffffffffffffff16908060010160009054906101000a900473ffffffffffffffffffffffffffffffffffffffff16908060020180546114d090612226565b80601f01602080910402602001604051908101604052809291908181526020018280546114fc90612226565b80156115495780601f1061151e57610100808354040283529160200191611549565b820191906000526020600020905b81548152906001019060200180831161152c57829003601f168201915b5050505050908060030160009054906101000a900460ff16908060030160019054906101000a900460ff16908060030160029054906101000a900460ff16908060030160039054906101000a900460ff16908060040180546115aa90612226565b80601f01602080910402602001604051908101604052809291908181526020018280546115d690612226565b80156116235780601f106115f857610100808354040283529160200191611623565b820191906000526020600020905b81548152906001019060200180831161160657829003601f168201915b5050505050905088565b600073ffffffffffffffffffffffffffffffffffffffff1660008260405161165591906121e0565b908152602001604051809103902060000160009054906101000a900473ffffffffffffffffffffffffffffffffffffffff1673ffffffffffffffffffffffffffffffffffffffff16036116dd576040517f08c379a00000000000000000000000000000000000000000000000000000000081526004016116d490612551565b60405180910390fd5b600080826040516116ee91906121e0565b908152602001604051809103902090507f9831634382de2ed5701b87ea1cd3b963ba5347aa18d48f8b783ab10f41355c4e828260000160009054906101000a900473ffffffffffffffffffffffffffffffffffffffff168360010160009054906101000a900473ffffffffffffffffffffffffffffffffffffffff168460030160009054906101000a900460ff168560030160019054906101000a900460ff168660030160029054906101000a900460ff168760030160039054906101000a900460ff16886004016040516117ca98979695949392919061291f565b60405180910390a15050565b60606117e142611825565b6118003373ffffffffffffffffffffffffffffffffffffffff16611985565b6040516020016118119291906129ab565b604051602081830303815290604052905090565b60606000820361186c576040518060400160405280600181526020017f30000000000000000000000000000000000000000000000000000000000000008152509050611980565b600082905060005b6000821461189e578080611887906129fe565b915050600a826118979190612a75565b9150611874565b60008167ffffffffffffffff8111156118ba576118b9611d16565b5b6040519080825280601f01601f1916602001820160405280156118ec5781602001600182028036833780820191505090505b5090505b60008514611979576001826119059190612aa6565b9150600a856119149190612ada565b60306119209190612b0b565b60f81b81838151811061193657611935612b3f565b5b60200101907effffffffffffffffffffffffffffffffffffffffffffffffffffffffffffff1916908160001a905350600a856119729190612a75565b94506118f0565b8093505050505b919050565b6060600082036119cc576040518060400160405280600481526020017f30783030000000000000000000000000000000000000000000000000000000008152509050611a05565b600082905060005b600082146119f65780806119e7906129fe565b915050600882901c91506119d4565b611a008482611a0a565b925050505b919050565b606060006002836002611a1d9190612b6e565b611a279190612b0b565b67ffffffffffffffff811115611a4057611a3f611d16565b5b6040519080825280601f01601f191660200182016040528015611a725781602001600182028036833780820191505090505b5090507f300000000000000000000000000000000000000000000000000000000000000081600081518110611aaa57611aa9612b3f565b5b60200101907effffffffffffffffffffffffffffffffffffffffffffffffffffffffffffff1916908160001a9053507f780000000000000000000000000000000000000000000000000000000000000081600181518110611b0e57611b0d612b3f565b5b60200101907effffffffffffffffffffffffffffffffffffffffffffffffffffffffffffff1916908160001a90535060006001846002611b4e9190612b6e565b611b589190612b0b565b90505b6001811115611bf8577f3031323334353637383961626364656600000000000000000000000000000000600f861660108110611b9a57611b99612b3f565b5b1a60f81b828281518110611bb157611bb0612b3f565b5b60200101907effffffffffffffffffffffffffffffffffffffffffffffffffffffffffffff1916908160001a905350600485901c945080611bf190612bb0565b9050611b5b565b5060008414611c3c576040517f08c379a0000000000000000000000000000000000000000000000000000000008152600401611c3390612c25565b60405180910390fd5b8091505092915050565b600081519050919050565b600082825260208201905092915050565b60005b83811015611c80578082015181840152602081019050611c65565b60008484015250505050565b6000601f19601f8301169050919050565b6000611ca882611c46565b611cb28185611c51565b9350611cc2818560208601611c62565b611ccb81611c8c565b840191505092915050565b60006020820190508181036000830152611cf08184611c9d565b905092915050565b6000604051905090565b600080fd5b600080fd5b600080fd5b600080fd5b7f4e487b7100000000000000000000000000000000000000000000000000000000600052604160045260246000fd5b611d4e82611c8c565b810181811067ffffffffffffffff82111715611d6d57611d6c611d16565b5b80604052505050565b6000611d80611cf8565b9050611d8c8282611d45565b919050565b600067ffffffffffffffff821115611dac57611dab611d16565b5b611db582611c8c565b9050602081019050919050565b82818337600083830152505050565b6000611de4611ddf84611d91565b611d76565b905082815260208101848484011115611e0057611dff611d11565b5b611e0b848285611dc2565b509392505050565b600082601f830112611e2857611e27611d0c565b5b8135611e38848260208601611dd1565b91505092915050565b600060208284031215611e5757611e56611d02565b5b600082013567ffffffffffffffff811115611e7557611e74611d07565b5b611e8184828501611e13565b91505092915050565b6000819050919050565b611e9d81611e8a565b82525050565b60006060820190508181036000830152611ebd8186611c9d565b90508181036020830152611ed18185611c9d565b9050611ee06040830184611e94565b949350505050565b60008115159050919050565b611efd81611ee8565b8114611f0857600080fd5b50565b600081359050611f1a81611ef4565b92915050565b600080600060608486031215611f3957611f38611d02565b5b600084013567ffffffffffffffff811115611f5757611f56611d07565b5b611f6386828701611e13565b9350506020611f7486828701611f0b565b925050604084013567ffffffffffffffff811115611f9557611f94611d07565b5b611fa186828701611e13565b9150509250925092565b600080600060608486031215611fc457611fc3611d02565b5b600084013567ffffffffffffffff811115611fe257611fe1611d07565b5b611fee86828701611e13565b935050602084013567ffffffffffffffff81111561200f5761200e611d07565b5b61201b86828701611e13565b925050604084013567ffffffffffffffff81111561203c5761203b611d07565b5b61204886828701611e13565b9150509250925092565b600073ffffffffffffffffffffffffffffffffffffffff82169050919050565b600061207d82612052565b9050919050565b61208d81612072565b82525050565b61209c81611ee8565b82525050565b600060e0820190506120b7600083018a612084565b6120c46020830189612084565b6120d16040830188612093565b6120de6060830187612093565b6120eb6080830186612093565b6120f860a0830185612093565b81810360c083015261210a8184611c9d565b905098975050505050505050565b60006101008201905061212e600083018b612084565b61213b602083018a612084565b818103604083015261214d8189611c9d565b905061215c6060830188612093565b6121696080830187612093565b61217660a0830186612093565b61218360c0830185612093565b81810360e08301526121958184611c9d565b90509998505050505050505050565b600081905092915050565b60006121ba82611c46565b6121c481856121a4565b93506121d4818560208601611c62565b80840191505092915050565b60006121ec82846121af565b915081905092915050565b7f4e487b7100000000000000000000000000000000000000000000000000000000600052602260045260246000fd5b6000600282049050600182168061223e57607f821691505b602082108103612251576122506121f7565b5b50919050565b60008190508160005260206000209050919050565b60006020601f8301049050919050565b600082821b905092915050565b6000600883026122b97fffffffffffffffffffffffffffffffffffffffffffffffffffffffffffffffff8261227c565b6122c3868361227c565b95508019841693508086168417925050509392505050565b6000819050919050565b60006123006122fb6122f684611e8a565b6122db565b611e8a565b9050919050565b6000819050919050565b61231a836122e5565b61232e61232682612307565b848454612289565b825550505050565b600090565b612343612336565b61234e818484612311565b505050565b5b818110156123725761236760008261233b565b600181019050612354565b5050565b601f8211156123b75761238881612257565b6123918461226c565b810160208510156123a0578190505b6123b46123ac8561226c565b830182612353565b50505b505050565b600082821c905092915050565b60006123da600019846008026123bc565b1980831691505092915050565b60006123f383836123c9565b9150826002028217905092915050565b61240c82611c46565b67ffffffffffffffff81111561242557612424611d16565b5b61242f8254612226565b61243a828285612376565b600060209050601f83116001811461246d576000841561245b578287015190505b61246585826123e7565b8655506124cd565b601f19841661247b86612257565b60005b828110156124a35784890151825560018201915060208501945060208101905061247e565b868310156124c057848901516124bc601f8916826123c9565b8355505b6001600288020188555050505b505050505050565b600060408201905081810360008301526124ef8185611c9d565b90506124fe6020830184612084565b9392505050565b7f4361736520646f6573206e6f7420657869737400000000000000000000000000600082015250565b600061253b601383611c51565b915061254682612505565b602082019050919050565b6000602082019050818103600083015261256a8161252e565b9050919050565b7f556e617574686f72697a65640000000000000000000000000000000000000000600082015250565b60006125a7600c83611c51565b91506125b282612571565b602082019050919050565b600060208201905081810360008301526125d68161259a565b9050919050565b7f4a756467656d656e742068617320616c7265616479206265656e2066696e616c60008201527f697a656400000000000000000000000000000000000000000000000000000000602082015250565b6000612639602483611c51565b9150612644826125dd565b604082019050919050565b600060208201905081810360008301526126688161262c565b9050919050565b7f426f746820706172746965732068617665206e6f74207375626d69747465642060008201527f70726f6f66000000000000000000000000000000000000000000000000000000602082015250565b60006126cb602583611c51565b91506126d68261266f565b604082019050919050565b600060208201905081810360008301526126fa816126be565b9050919050565b6000604082019050818103600083015261271b8185611c9d565b905061272a6020830184612093565b9392505050565b7f50726f6f662068617320616c7265616479206265656e207375626d6974746564600082015250565b6000612767602083611c51565b915061277282612731565b602082019050919050565b600060208201905081810360008301526127968161275a565b9050919050565b7f5365636f6e64207061727420616c726561647920636f6e6e6563746564000000600082015250565b60006127d3601d83611c51565b91506127de8261279d565b602082019050919050565b60006020820190508181036000830152612802816127c6565b9050919050565b7f5365636f6e6420706172742063616e6e6f74206265207468652063617365206360008201527f726561746f720000000000000000000000000000000000000000000000000000602082015250565b6000612865602683611c51565b915061287082612809565b604082019050919050565b6000602082019050818103600083015261289481612858565b9050919050565b600081546128a881612226565b6128b28186611c51565b945060018216600081146128cd57600181146128e357612916565b60ff198316865281151560200286019350612916565b6128ec85612257565b60005b8381101561290e578154818901526001820191506020810190506128ef565b808801955050505b50505092915050565b600061010082019050818103600083015261293a818b611c9d565b9050612949602083018a612084565b6129566040830189612084565b6129636060830188612093565b6129706080830187612093565b61297d60a0830186612093565b61298a60c0830185612093565b81810360e083015261299c818461289b565b90509998505050505050505050565b60006129b782856121af565b91506129c382846121af565b91508190509392505050565b7f4e487b7100000000000000000000000000000000000000000000000000000000600052601160045260246000fd5b6000612a0982611e8a565b91507fffffffffffffffffffffffffffffffffffffffffffffffffffffffffffffffff8203612a3b57612a3a6129cf565b5b600182019050919050565b7f4e487b7100000000000000000000000000000000000000000000000000000000600052601260045260246000fd5b6000612a8082611e8a565b9150612a8b83611e8a565b925082612a9b57612a9a612a46565b5b828204905092915050565b6000612ab182611e8a565b9150612abc83611e8a565b9250828203905081811115612ad457612ad36129cf565b5b92915050565b6000612ae582611e8a565b9150612af083611e8a565b925082612b0057612aff612a46565b5b828206905092915050565b6000612b1682611e8a565b9150612b2183611e8a565b9250828201905080821115612b3957612b386129cf565b5b92915050565b7f4e487b7100000000000000000000000000000000000000000000000000000000600052603260045260246000fd5b6000612b7982611e8a565b9150612b8483611e8a565b9250828202612b9281611e8a565b91508282048414831517612ba957612ba86129cf565b5b5092915050565b6000612bbb82611e8a565b915060008203612bce57612bcd6129cf565b5b600182039050919050565b7f537472696e67733a20686578206c656e67746820696e73756666696369656e74600082015250565b6000612c0f602083611c51565b9150612c1a82612bd9565b602082019050919050565b60006020820190508181036000830152612c3e81612c02565b905091905056fea26469706673582212207f397ba7ff58a5cc40d80a3df88b462a17601b033ef75fc0dd2afc794aaace6164736f6c63430008110033",
  "linkReferences": {},
  "deployedLinkReferences": {}
}